:020000040800F2
:1000000000500020390E0008810E0008810E000803
:10001000810E0008810E0008810E0008000000001B
:10002000000000000000000000000000810E000839
:10003000810E000800000000810E0008270E000855
:10004000810E0008810E0008810E0008810E000854
:10005000810E0008810E0008810E0008810E000844
:10006000810E0008810E0008810E0008810E000834
:10007000810E0008810E0008810E0008810E000824
:10008000810E0008810E0008810E0008810E000814
:10009000810E0008810E0008810E0008810E000804
:1000A000810E0008810E0008810E0008810E0008F4
:1000B000E50D0008FB0D0008110E0008810E000878
:1000C000810E0008810E0008810E0008810E0008D4
:1000D000810E0008810E0008810E0008810E0008C4
:1000E000810E0008810E0008810E0008000000004B
:1000F0000000000000000000000000000000000000
:0C01000000000000000000005FF808F1A3
:10010C0080F0004002E000BF81F0004142001FBFC0
:10011C005FEA410392EA030F7FEA226C7FEA236CC9
:10012C006AD04FEA1262D2EB1363C1BFD2184140BE
:10013C0048404140B8BF5B42192B88BF704710F054
:10014C00004F40F4000020F07F4018BF404211F0F7
:10015C00004F41F4000121F07F4118BF494292EA5F
:10016C00030F3FD0A2F1010241FA03FC10EB0C008B
:10017C00C3F1200301FA03F100F0004302D5494218
:10018C0060EB4000B0F5000F13D3B0F1807F06D3C5
:10019C0040084FEA310102F10102FE2A51D2B1F1BD
:1001AC00004F40EBC25008BF20F0010040EA0300B2
:1001BC007047490040EB0000013A28BFB0F5000F32
:1001CC00EDD2B0FA80FCACF1080CB2EB0C0200FAE8
:1001DC000CF0AABF00EBC25052421843BCBFD04037
:1001EC001843704792F0000F81F4000106BF80F4B1
:1001FC0000000132013BB5E74FEA41037FEA226C74
:10020C0018BF7FEA236C21D092EA030F04D092F03E
:10021C00000F08BF0846704790EA010F1CBF002072
:10022C00704712F07F4F04D1400028BF40F00040CF
:10023C00704712F100723CBF00F50000704700F0EF
:10024C00004343F0FE4040F4000070477FEA226216
:10025C0016BF08467FEA23630146420206BF5FEAE7
:10026C00412390EA010F40F4800070474FF00003E7
:10027C0004E000BF10F0004348BF40425FEA000CAE
:10028C0008BF704743F0964301464FF000001CE056
:10029C0050EA010208BF70474FF000030AE000BFAC
:1002AC0050EA010208BF704711F0004302D54042EA
:1002BC0061EB41015FEA010C02BF8446014600205C
:1002CC0043F0B64308BFA3F18053A3F50003BCFA77
:1002DC008CF2083AA3EBC25310DB01FA02FC634424
:1002EC0000FA02FCC2F12002BCF1004F20FA02F22B
:1002FC0043EB020008BF20F00100704702F120021E
:10030C0001FA02FCC2F1200250EA4C0021FA02F27E
:10031C0043EB020008BF20EADC7070474FF0FF0C83
:10032C001CEAD0521EBF1CEAD15392EA0C0F93EA7E
:10033C000C0F6FD01A4480EA010C400218BF5FEA20
:10034C0041211ED04FF0006343EA501043EA511193
:10035C00A0FB01310CF00040B1F5000F3EBF49008D
:10036C0041EAD3715B0040EA010062F17F02FD2A91
:10037C001DD8B3F1004F40EBC25008BF20F0010074
:10038C00704790F0000F0CF0004C08BF49024CEA8B
:10039C00502040EA51207F3AC2BFD2F1FF0340EA1D
:1003AC00C250704740F400004FF00003013A5DDC8E
:1003BC0012F1190FDCBF00F000407047C2F10002CF
:1003CC00410021FA02F1C2F1200200FA02FC5FEABC
:1003DC00310040F1000053EA4C0308BF20EADC7006
:1003EC00704792F0000F00F0004C02BF400010F478
:1003FC00000F013AF9D040EA0C0093F0000F01F025
:10040C00004C02BF490011F4000F013BF9D041EA46
:10041C000C018FE70CEAD15392EA0C0F18BF93EA48
:10042C000C0F0AD030F0004C18BF31F0004CD8D172
:10043C0080EA010000F00040704790F0000F17BFF9
:10044C0090F0004F084691F0000F91F0004F14D03F
:10045C0092EA0C0F01D142020FD193EA0C0F03D197
:10046C004B0218BF084608D180EA010000F000409A
:10047C0040F0FE4040F40000704740F0FE4040F475
:10048C00400070474FF0FF0C1CEAD0521EBF1CEA14
:10049C00D15392EA0C0F93EA0C0F69D0A2EB030232
:1004AC0080EA010C49024FEA402037D04FF08053CC
:1004BC0043EA111143EA10130CF000408B4238BF91
:1004CC005B0042F17D024FF4000C8B4224BF5B1A9F
:1004DC0040EA0C00B3EB510F24BFA3EB510340EAED
:1004EC005C00B3EB910F24BFA3EB910340EA9C009B
:1004FC00B3EBD10F24BFA3EBD10340EADC001B010B
:10050C0018BF5FEA1C1CE0D1FD2A3FF650AF8B42AE
:10051C0040EBC25008BF20F0010070470CF0004CBB
:10052C004CEA50207F32C2BFD2F1FF0340EAC250E6
:10053C00704740F400004FF00003013A37E792F0A7
:10054C00000F00F0004C02BF400010F4000F013A05
:10055C00F9D040EA0C0093F0000F01F0004C02BF00
:10056C00490011F4000F013BF9D041EA0C0195E769
:10057C000CEAD15392EA0C0F08D142027FF47DAF02
:10058C0093EA0C0F7FF470AF084676E793EA0C0FF2
:10059C0004D14B023FF44CAF08466EE730F0004CF0
:1005AC0018BF31F0004CCAD130F000427FF45CAF80
:1005BC0031F000437FF43CAF5FE700BF4FF0FF3CEE
:1005CC0006E000BF4FF0010C02E000BF4FF0010C41
:1005DC004DF804CD4FEA40024FEA41037FEA226C0A
:1005EC0018BF7FEA236C11D001B052EA530C18BF2C
:1005FC0090EA010F58BFB2EB030088BFC81738BF91
:10060C006FEAE17018BF40F0010070477FEA226C7E
:10061C0002D15FEA402C05D17FEA236CE4D15FEA7A
:10062C00412CE1D05DF8040B704700BF84460846AE
:10063C006146FFE70FB5FFF7C9FF002848BF10F16F
:10064C00000F0FBD4DF808EDFFF7F4FF0CBF0120B4
:10065C0000205DF808FB00BF4DF808EDFFF7EAFF3E
:10066C0034BF012000205DF808FB00BF4DF808EDF9
:10067C00FFF7E0FF94BF012000205DF808FB00BFEE
:10068C004DF808EDFFF7D2FF94BF012000205DF874
:10069C0008FB00BF4DF808EDFFF7C8FF34BF012081
:1006AC0000205DF808FB00BF4FEA4002B2F1FE4F9C
:1006BC000FD34FF09E03B3EB12620DD94FEA002318
:1006CC0043F0004310F0004F23FA02F018BF4042F1
:1006DC0070474FF00000704712F1610F01D14202D8
:1006EC0005D110F0004008BF6FF0004070474FF08C
:1006FC000000704710B5054C237833B9044B13B187
:10070C000448AFF300800123237010BD8400002047
:10071C0000000000D811000808B5034B1BB10349B9
:10072C000348AFF3008008BD0000000088000020E3
:10073C00D811000870470000224A136843F4803334
:10074C001360204B1B6813F4003FFAD01E4B14228D
:10075C001A60A3F580535A6822F47C125A605A68C6
:10076C0042F4E8125A601A6842F080721A60154B13
:10077C001B6813F0007FFAD0124A536843F002034F
:10078C005360104B5B6803F00C03082BF9D10D4A36
:10079C00536843F4806353600C4B1B680C4AA2FBF8
:1007AC0003239B09013BB3F1807F0AD24FF0E02277
:1007BC005361084BF02183F8231000239361072326
:1007CC00136170470010024000200240000000201E
:1007DC00D34D621000ED00E0074A936943F010031B
:1007EC009361064B5A6822F470025A605A6842F4BC
:1007FC0080125A60704700BF001002400010014088
:10080C00002301E000BF01338342FBD3704700009B
:10081C0008B5FFF791FFFFF7DFFF00F0F1F900F0EB
:10082C0097F8124800F0DAF8114800F0DDF811489A
:10083C0000F0E0F800F0B0FA00F09EFA4FF07E50B5
:10084C0000F094FA00F0A6F862B60B4AD36883F471
:10085C000053D3600948FFF7D3FF094A13680133EB
:10086C0013600A2BF1D100F08FFAEEE7B50C0008FB
:10087C00D10C0008ED0C00080010014040420F00A4
:10088C00A000002070B42B4CB4FBF2F4013CB4F586
:10089C00803F07D294BB284DB5FBF2FC25460CF1EA
:1008AC00FF3402E04FF6FF74472501604260B1F15E
:1008BC00804F25D0214A914228D0214A91422BD0F9
:1008CC0000220A608D62CC62CA6842F00102CA60E2
:1008DC0003F01F045A090121A1401A4C44F82210BC
:1008EC005AB2002A1EDB02F1604202F5614210236B
:1008FC0082F800330123037370BC70474725D4E79B
:10090C00114EF26942F00102F261D9E70E4EF26922
:10091C0042F00202F261D3E70B4EF26942F004029C
:10092C00F261CDE703F00F03084A1A441023137643
:10093C00E0E700BF40420F0000A24A040004004060
:10094C000008004000E100E000100240FCEC00E078
:10095C0008B51C2344F620624FF080410848FFF78D
:10096C0091FF1D2342F2107206490748FFF78AFFD8
:10097C001E2341F2883205490548FFF783FF08BD65
:10098C002400002000040040140000200008004057
:10099C00040000200C4B1B7B2BB14FF080421368E2
:1009AC0043F001031360094B1B7B23B1084A136806
:1009BC0043F001031360074B1B7B23B1064A1368FA
:1009CC0043F0010313607047240000201400002042
:1009DC00000400400400002000080040014B986017
:1009EC00704700BF24000020014B9860704700BF87
:1009FC0014000020014B9860704700BF04000020D9
:100A0C0008B54FF080431B6913F0010F0DD04FF068
:100A1C008042136923F001031361044A1368013304
:100A2C001360034B9B6803B1984708BDAC000020D2
:100A3C002400002008B5094B1B6913F0010F0CD0E2
:100A4C00064A136923F001031361054A1368013345
:100A5C001360044B9B6803B1984708BD0004004029
:100A6C00A80000201400002008B5094B1B6913F0E6
:100A7C00010F0CD0064A136923F001031361054AD8
:100A8C00136801331360044B9B6803B1984708BD8E
:100A9C0000080040A4000020040000200023036193
:100AAC004361704770B504460D46164603604160BD
:100ABC00826000212846FFF7EDFD28B90023E36092
:100ACC002046FFF7EBFF70BD06F100402946FFF70B
:100ADC00D9FC00F003FAE060F2E7F8B504460F46E3
:100AEC00C66801693046FFF719FC054631464FF0E0
:100AFC007E50FFF709FB064639462068FFF70EFCCF
:100B0C0001463046FFF70AFC01462846FFF7FEFA7D
:100B1C0060612061F8BD0023C3600361C36103629F
:100B2C00704708B5016042608360029B8361039B40
:100B3C004361FFF7F0FF08BDF8B5044608461146BF
:100B4C00FFF7E2FA054620622168FFF7E7FB06464D
:100B5C00276961682846FFF7E1FBA168FFF7DEFB18
:100B6C0001463846FFF7D2FA054667690146384612
:100B7C00FFF772FD38B1E760E06820613146FFF79E
:100B8C00C5FAE061F8BDA76929463846FFF782FD32
:100B9C0008B1E760F0E7E560EEE70023C3600361AE
:100BAC00704708B5016042608360FFF7F6FF08BD2F
:100BBC00F8B504460D46466800213046FFF76AFD3D
:100BCC00C0B1E7683146A068FFF75CFC06462946D1
:100BDC002068FFF7A3FB3946FFF796FA014630462B
:100BEC00FFF79CFB01463846FFF790FA206120691D
:100BFC00E060F8BD29462068FFF790FB2061F6E71E
:100C0C0070B582B01E4C4FF0814301931D4B009385
:100C1C001D4B1E4A1E492046FFF783FF4FF07E55A1
:100C2C002B461C4A1C4904F12400FFF73BFF1B4BCD
:100C3C001B4A294604F13C00FFF7B3FF0023236550
:100C4C006365A365E365002584F8605084F8615002
:100C5C0084F8625004F50053C3F8445F83F8485F8E
:100C6C0041F270763246294604F1640000F003F933
:100C7C00324629460B4800F0FEF802B070BD00BFAA
:100C8C00B8000020000040C017B75138000048429F
:100C9C000000A04017B7D1380AD7233C17B75139F9
:100CAC00CDCCCC3D8C18002010B5054CE26D216DDF
:100CBC002046FFF741FF6065012384F8603010BDCA
:100CCC00B800002010B5054C616D04F12400FFF74D
:100CDC0004FFA065012384F8613010BDB80000202A
:100CEC0070B51D4CA16D04F13C00FFF761FF05468A
:100CFC00E0651A4E1A493068FFF708FA3060012394
:100D0C0084F8623004F5005494F8483FEBB1154A6E
:100D1C001368013313604A2B17D9134600221A604B
:100D2C00D4F8443F40F2DB5293420FD8A4F5005262
:100D3C0003F1180102EB8101486003F2F45102EB5C
:100D4C0081014D600133C4F8443F70BD064B002255
:100D5C0083F8482FF9E700BFB8000020B40000204A
:100D6C0017B75139B0000020B8200020014B18658E
:100D7C00704700BFB8000020024B012283F8482FB7
:100D8C00704700BFB8200020024B002283F8482F88
:100D9C00704700BFB820002038B50C4800F5005350
:100DAC000024C3F8444F83F8484F41F270752A462B
:100DBC002146643000F05FF82A462146044800F0D2
:100DCC005AF8044B00221A6038BD00BFB80000204E
:100DDC008C180020B4000020684620F007018D46D6
:100DEC0001B5FFF70DFEBDE801408546704768462A
:100DFC0020F007018D4601B5FFF71CFEBDE8014050
:100E0C0085467047684620F007018D4601B5FFF70F
:100E1C002BFEBDE8014085467047684620F007016F
:100E2C008D4601B401BC854670470000FFF782FC7B
:100E3C000B480C490C4A002302E0D458C45004332C
:100E4C00C4188C42F9D3094A094C002301E0136001
:100E5C000432A242FBD300F01DF8FFF7D9FC704717
:100E6C0000000020840000201012000884000020E4
:100E7C003C310020FEE703460244934200D1704708
:100E8C0003F8011BF9E70000014B1868704700BF1D
:100E9C003400002070B500260C4D0D4C641BA410C2
:100EAC00A64209D100F092F900260A4D0A4C641BA7
:100EBC00A410A64205D170BD55F8043B98470136E5
:100ECC00EEE755F8043B98470136F2E708120008A4
:100EDC0008120008081200080C12000838B5044665
:100EEC0000F02CF80546204600F020F848B12046CA
:100EFC000C49FFF7CFFB30B920460B49FFF7ACFB91
:100F0C0048B9284638BDFFF7BFFF4FF0FF452223F5
:100F1C000360284638BDFFF7B7FF22230025036086
:100F2C00EFE700BF1772B142B5F1CFC220F000401D
:100F3C00B0F1FF4FACBF00200120704720F0004201
:100F4C00B2F1FF4F2DE9F04704466BD84FEAD0754C
:100F5C0000F0C5807A49884200F3B3800028C0F2C3
:100F6C00B580784B9A4262D9774B9A4200F2C48092
:100F7C00764B204653F82510FFF7C6F80746744BFE
:100F8C0085F0010653F82580761B41463846FFF75D
:100F9C00BBF801460446FFF7C1F905466D49FFF75A
:100FAC00BDF96D49FFF7B0F82946FFF7B7F96B4962
:100FBC00FFF7ACF82946FFF7B1F96949FFF7A4F838
:100FCC002946FFF7ABF96749FFF7A0F82946FFF769
:100FDC00A5F901462046FFF797F805462046294615
:100FEC00FFF79CF9AA468146002E52D029464FF0B5
:100FFC008040FFF789F801464846FFF743FA01465F
:10100C004046FFF781F83946FFF77EF801464FF06E
:10101C007E50FFF779F816F17D0F64DB00EBC650BC
:10102C00BDE8F0870146FFF771F8BDE8F087B2F133
:10103C00505F09D24C492046FFF768F84FF07E51BB
:10104C00FFF728FB002874D121462046FFF766F9EC
:10105C0005464049FFF762F93F49FFF755F8294625
:10106C00FFF75CF93D49FFF751F82946FFF756F9B0
:10107C003B49FFF749F82946FFF750F93949FFF783
:10108C0045F82946FFF74AF901462046FFF73CF898
:10109C00824651462046FFF741F94FF08041054604
:1010AC005046FFF731F801462846FFF7EBF9214689
:1010BC00FFF72AF801464FF07E50FFF725F8BDE800
:1010CC00F0870020BDE8F04700F07CB8274B9A422F
:1010DC007FF647AFBDE8F047002000F06FB8002D59
:1010EC00A3D00020A1E764364FF0586100EBC65046
:1010FC00FFF714F9BDE8F0871D492046FFF70EF9FC
:10110C001C4B53F82510FFF701F8FFF7CDFA0646F4
:10111C00FFF7B0F818490546FFF700F901462046DD
:10112C00FEF7F2FF154907462846FFF7F7F8804609
:10113C002BE720464FF07E51FEF7E8FF75E700BF26
:10114C001772B1421872B13E9115853FF811000823
:10115C00F01100084CBB31330EEADD3555B38A383B
:10116C00610B363BABAA2A3ECAF24971B5F1CF42AC
:10117C003BAAB83F001200088071313FD1F71737F6
:10118C0038B505460C46FFF77FFE034628461C6023
:10119C0038BD00BF08B540B101F10040FFF7BEF803
:1011AC00BDE808402221FFF7EBBF0846FFF7B6F871
:1011BC00BDE808402221FFF7E3BF00BF4FF080518C
:1011CC00FFF7E8BF4FF0E041FFF7E4BFF8B500BF11
:1011DC00F8BC08BC9E467047F8B500BFF8BC08BC0C
:0411EC009E46704764
:1011F000D1F71737D1F717B78071313F807131BF01
:081200000000003F000000BFE8
:0412080025070008AE
:04120C0001070008CE
:101210000024F400000800408813000000000000D3
:101220000000000000040040102700000000000043
:101230000000000000000040204E00000000000000
:1012400000000000380000200000000004300020F2
:101250006C300020D43000200000000000000000AE
:10126000000000000000000000000000000000007E
:10127000000000000000000000000000000000006E
:10128000000000000000000000000000000000005E
:04129000000000005A
:0400000508000E39A8
:00000001FF
